{
  "contractName": "IngToken",
  "abi": [
    {
      "inputs": [
        {
          "internalType": "string",
          "name": "_name",
          "type": "string"
        },
        {
          "internalType": "string",
          "name": "_symbol",
          "type": "string"
        },
        {
          "internalType": "string",
          "name": "_metadataURI",
          "type": "string"
        }
      ],
      "stateMutability": "nonpayable",
      "type": "constructor"
    },
    {
      "anonymous": false,
      "inputs": [
        {
          "indexed": true,
          "internalType": "address",
          "name": "owner",
          "type": "address"
        },
        {
          "indexed": true,
          "internalType": "address",
          "name": "approved",
          "type": "address"
        },
        {
          "indexed": true,
          "internalType": "uint256",
          "name": "tokenId",
          "type": "uint256"
        }
      ],
      "name": "Approval",
      "type": "event"
    },
    {
      "anonymous": false,
      "inputs": [
        {
          "indexed": true,
          "internalType": "address",
          "name": "owner",
          "type": "address"
        },
        {
          "indexed": true,
          "internalType": "address",
          "name": "operator",
          "type": "address"
        },
        {
          "indexed": false,
          "internalType": "bool",
          "name": "approved",
          "type": "bool"
        }
      ],
      "name": "ApprovalForAll",
      "type": "event"
    },
    {
      "anonymous": false,
      "inputs": [
        {
          "indexed": true,
          "internalType": "address",
          "name": "previousOwner",
          "type": "address"
        },
        {
          "indexed": true,
          "internalType": "address",
          "name": "newOwner",
          "type": "address"
        }
      ],
      "name": "OwnershipTransferred",
      "type": "event"
    },
    {
      "anonymous": false,
      "inputs": [
        {
          "indexed": true,
          "internalType": "address",
          "name": "from",
          "type": "address"
        },
        {
          "indexed": true,
          "internalType": "address",
          "name": "to",
          "type": "address"
        },
        {
          "indexed": true,
          "internalType": "uint256",
          "name": "tokenId",
          "type": "uint256"
        }
      ],
      "name": "Transfer",
      "type": "event"
    },
    {
      "inputs": [],
      "name": "MAX_TOKEN_COUNT",
      "outputs": [
        {
          "internalType": "uint256",
          "name": "",
          "type": "uint256"
        }
      ],
      "stateMutability": "view",
      "type": "function",
      "constant": true
    },
    {
      "inputs": [],
      "name": "TOKEN_RANK",
      "outputs": [
        {
          "internalType": "uint256",
          "name": "",
          "type": "uint256"
        }
      ],
      "stateMutability": "view",
      "type": "function",
      "constant": true
    },
    {
      "inputs": [],
      "name": "TOKEN_TYPE",
      "outputs": [
        {
          "internalType": "uint256",
          "name": "",
          "type": "uint256"
        }
      ],
      "stateMutability": "view",
      "type": "function",
      "constant": true
    },
    {
      "inputs": [
        {
          "internalType": "uint256",
          "name": "",
          "type": "uint256"
        },
        {
          "internalType": "uint256",
          "name": "",
          "type": "uint256"
        }
      ],
      "name": "TokenCount",
      "outputs": [
        {
          "internalType": "uint256",
          "name": "",
          "type": "uint256"
        }
      ],
      "stateMutability": "view",
      "type": "function",
      "constant": true
    },
    {
      "inputs": [
        {
          "internalType": "uint256",
          "name": "",
          "type": "uint256"
        }
      ],
      "name": "TokenDatas",
      "outputs": [
        {
          "internalType": "uint256",
          "name": "Rank",
          "type": "uint256"
        },
        {
          "internalType": "uint256",
          "name": "Type",
          "type": "uint256"
        }
      ],
      "stateMutability": "view",
      "type": "function",
      "constant": true
    },
    {
      "inputs": [
        {
          "internalType": "address",
          "name": "to",
          "type": "address"
        },
        {
          "internalType": "uint256",
          "name": "tokenId",
          "type": "uint256"
        }
      ],
      "name": "approve",
      "outputs": [],
      "stateMutability": "nonpayable",
      "type": "function"
    },
    {
      "inputs": [
        {
          "internalType": "address",
          "name": "owner",
          "type": "address"
        }
      ],
      "name": "balanceOf",
      "outputs": [
        {
          "internalType": "uint256",
          "name": "",
          "type": "uint256"
        }
      ],
      "stateMutability": "view",
      "type": "function",
      "constant": true
    },
    {
      "inputs": [
        {
          "internalType": "uint256",
          "name": "tokenId",
          "type": "uint256"
        }
      ],
      "name": "getApproved",
      "outputs": [
        {
          "internalType": "address",
          "name": "",
          "type": "address"
        }
      ],
      "stateMutability": "view",
      "type": "function",
      "constant": true
    },
    {
      "inputs": [
        {
          "internalType": "address",
          "name": "owner",
          "type": "address"
        },
        {
          "internalType": "address",
          "name": "operator",
          "type": "address"
        }
      ],
      "name": "isApprovedForAll",
      "outputs": [
        {
          "internalType": "bool",
          "name": "",
          "type": "bool"
        }
      ],
      "stateMutability": "view",
      "type": "function",
      "constant": true
    },
    {
      "inputs": [],
      "name": "metadataURI",
      "outputs": [
        {
          "internalType": "string",
          "name": "",
          "type": "string"
        }
      ],
      "stateMutability": "view",
      "type": "function",
      "constant": true
    },
    {
      "inputs": [],
      "name": "mintingPrice",
      "outputs": [
        {
          "internalType": "uint256",
          "name": "",
          "type": "uint256"
        }
      ],
      "stateMutability": "view",
      "type": "function",
      "constant": true
    },
    {
      "inputs": [],
      "name": "name",
      "outputs": [
        {
          "internalType": "string",
          "name": "",
          "type": "string"
        }
      ],
      "stateMutability": "view",
      "type": "function",
      "constant": true
    },
    {
      "inputs": [],
      "name": "owner",
      "outputs": [
        {
          "internalType": "address",
          "name": "",
          "type": "address"
        }
      ],
      "stateMutability": "view",
      "type": "function",
      "constant": true
    },
    {
      "inputs": [
        {
          "internalType": "uint256",
          "name": "tokenId",
          "type": "uint256"
        }
      ],
      "name": "ownerOf",
      "outputs": [
        {
          "internalType": "address",
          "name": "",
          "type": "address"
        }
      ],
      "stateMutability": "view",
      "type": "function",
      "constant": true
    },
    {
      "inputs": [],
      "name": "renounceOwnership",
      "outputs": [],
      "stateMutability": "nonpayable",
      "type": "function"
    },
    {
      "inputs": [
        {
          "internalType": "address",
          "name": "from",
          "type": "address"
        },
        {
          "internalType": "address",
          "name": "to",
          "type": "address"
        },
        {
          "internalType": "uint256",
          "name": "tokenId",
          "type": "uint256"
        }
      ],
      "name": "safeTransferFrom",
      "outputs": [],
      "stateMutability": "nonpayable",
      "type": "function"
    },
    {
      "inputs": [
        {
          "internalType": "address",
          "name": "from",
          "type": "address"
        },
        {
          "internalType": "address",
          "name": "to",
          "type": "address"
        },
        {
          "internalType": "uint256",
          "name": "tokenId",
          "type": "uint256"
        },
        {
          "internalType": "bytes",
          "name": "_data",
          "type": "bytes"
        }
      ],
      "name": "safeTransferFrom",
      "outputs": [],
      "stateMutability": "nonpayable",
      "type": "function"
    },
    {
      "inputs": [
        {
          "internalType": "address",
          "name": "operator",
          "type": "address"
        },
        {
          "internalType": "bool",
          "name": "approved",
          "type": "bool"
        }
      ],
      "name": "setApprovalForAll",
      "outputs": [],
      "stateMutability": "nonpayable",
      "type": "function"
    },
    {
      "inputs": [
        {
          "internalType": "bytes4",
          "name": "interfaceId",
          "type": "bytes4"
        }
      ],
      "name": "supportsInterface",
      "outputs": [
        {
          "internalType": "bool",
          "name": "",
          "type": "bool"
        }
      ],
      "stateMutability": "view",
      "type": "function",
      "constant": true
    },
    {
      "inputs": [],
      "name": "symbol",
      "outputs": [
        {
          "internalType": "string",
          "name": "",
          "type": "string"
        }
      ],
      "stateMutability": "view",
      "type": "function",
      "constant": true
    },
    {
      "inputs": [
        {
          "internalType": "uint256",
          "name": "index",
          "type": "uint256"
        }
      ],
      "name": "tokenByIndex",
      "outputs": [
        {
          "internalType": "uint256",
          "name": "",
          "type": "uint256"
        }
      ],
      "stateMutability": "view",
      "type": "function",
      "constant": true
    },
    {
      "inputs": [
        {
          "internalType": "address",
          "name": "owner",
          "type": "address"
        },
        {
          "internalType": "uint256",
          "name": "index",
          "type": "uint256"
        }
      ],
      "name": "tokenOfOwnerByIndex",
      "outputs": [
        {
          "internalType": "uint256",
          "name": "",
          "type": "uint256"
        }
      ],
      "stateMutability": "view",
      "type": "function",
      "constant": true
    },
    {
      "inputs": [],
      "name": "totalSupply",
      "outputs": [
        {
          "internalType": "uint256",
          "name": "",
          "type": "uint256"
        }
      ],
      "stateMutability": "view",
      "type": "function",
      "constant": true
    },
    {
      "inputs": [
        {
          "internalType": "address",
          "name": "from",
          "type": "address"
        },
        {
          "internalType": "address",
          "name": "to",
          "type": "address"
        },
        {
          "internalType": "uint256",
          "name": "tokenId",
          "type": "uint256"
        }
      ],
      "name": "transferFrom",
      "outputs": [],
      "stateMutability": "nonpayable",
      "type": "function"
    },
    {
      "inputs": [
        {
          "internalType": "address",
          "name": "newOwner",
          "type": "address"
        }
      ],
      "name": "transferOwnership",
      "outputs": [],
      "stateMutability": "nonpayable",
      "type": "function"
    },
    {
      "inputs": [],
      "name": "mintToken",
      "outputs": [],
      "stateMutability": "payable",
      "type": "function",
      "payable": true
    },
    {
      "inputs": [
        {
          "internalType": "uint256",
          "name": "_tokenId",
          "type": "uint256"
        }
      ],
      "name": "getTokenRank",
      "outputs": [
        {
          "internalType": "uint256",
          "name": "",
          "type": "uint256"
        }
      ],
      "stateMutability": "view",
      "type": "function",
      "constant": true
    },
    {
      "inputs": [
        {
          "internalType": "uint256",
          "name": "_tokenId",
          "type": "uint256"
        }
      ],
      "name": "getTokenType",
      "outputs": [
        {
          "internalType": "uint256",
          "name": "",
          "type": "uint256"
        }
      ],
      "stateMutability": "view",
      "type": "function",
      "constant": true
    },
    {
      "inputs": [],
      "name": "getTokenCount",
      "outputs": [
        {
          "internalType": "uint256[4][4]",
          "name": "",
          "type": "uint256[4][4]"
        }
      ],
      "stateMutability": "view",
      "type": "function",
      "constant": true
    },
    {
      "inputs": [
        {
          "internalType": "uint256",
          "name": "_tokenId",
          "type": "uint256"
        }
      ],
      "name": "tokenURI",
      "outputs": [
        {
          "internalType": "string",
          "name": "",
          "type": "string"
        }
      ],
      "stateMutability": "view",
      "type": "function",
      "constant": true
    },
    {
      "inputs": [
        {
          "internalType": "string",
          "name": "_uri",
          "type": "string"
        }
      ],
      "name": "setMetadataURI",
      "outputs": [],
      "stateMutability": "nonpayable",
      "type": "function"
    }
  ],
  "bytecode": "0x6080604052670de0b6b3a7640000600c553480156200001d57600080fd5b5060405162004b2f38038062004b2f833981810160405281019062000043919062000311565b8282816000908162000056919062000615565b50806001908162000068919062000615565b5050506200008b6200007f620000a660201b60201c565b620000ae60201b60201c565b80600b90816200009c919062000615565b50505050620006fc565b600033905090565b6000600a60009054906101000a900473ffffffffffffffffffffffffffffffffffffffff16905081600a60006101000a81548173ffffffffffffffffffffffffffffffffffffffff021916908373ffffffffffffffffffffffffffffffffffffffff1602179055508173ffffffffffffffffffffffffffffffffffffffff168173ffffffffffffffffffffffffffffffffffffffff167f8be0079c531659141344cd1fd0a4f28419497f9722a3daafe3b4186f6b6457e060405160405180910390a35050565b6000604051905090565b600080fd5b600080fd5b600080fd5b600080fd5b6000601f19601f8301169050919050565b7f4e487b7100000000000000000000000000000000000000000000000000000000600052604160045260246000fd5b620001dd8262000192565b810181811067ffffffffffffffff82111715620001ff57620001fe620001a3565b5b80604052505050565b60006200021462000174565b9050620002228282620001d2565b919050565b600067ffffffffffffffff821115620002455762000244620001a3565b5b620002508262000192565b9050602081019050919050565b60005b838110156200027d57808201518184015260208101905062000260565b838111156200028d576000848401525b50505050565b6000620002aa620002a48462000227565b62000208565b905082815260208101848484011115620002c957620002c86200018d565b5b620002d68482856200025d565b509392505050565b600082601f830112620002f657620002f562000188565b5b81516200030884826020860162000293565b91505092915050565b6000806000606084860312156200032d576200032c6200017e565b5b600084015167ffffffffffffffff8111156200034e576200034d62000183565b5b6200035c86828701620002de565b935050602084015167ffffffffffffffff81111562000380576200037f62000183565b5b6200038e86828701620002de565b925050604084015167ffffffffffffffff811115620003b257620003b162000183565b5b620003c086828701620002de565b9150509250925092565b600081519050919050565b7f4e487b7100000000000000000000000000000000000000000000000000000000600052602260045260246000fd5b600060028204905060018216806200041d57607f821691505b602082108103620004335762000432620003d5565b5b50919050565b60008190508160005260206000209050919050565b60006020601f8301049050919050565b600082821b905092915050565b6000600883026200049d7fffffffffffffffffffffffffffffffffffffffffffffffffffffffffffffffff826200045e565b620004a986836200045e565b95508019841693508086168417925050509392505050565b6000819050919050565b6000819050919050565b6000620004f6620004f0620004ea84620004c1565b620004cb565b620004c1565b9050919050565b6000819050919050565b6200051283620004d5565b6200052a6200052182620004fd565b8484546200046b565b825550505050565b600090565b6200054162000532565b6200054e81848462000507565b505050565b5b8181101562000576576200056a60008262000537565b60018101905062000554565b5050565b601f821115620005c5576200058f8162000439565b6200059a846200044e565b81016020851015620005aa578190505b620005c2620005b9856200044e565b83018262000553565b50505b505050565b600082821c905092915050565b6000620005ea60001984600802620005ca565b1980831691505092915050565b6000620006058383620005d7565b9150826002028217905092915050565b6200062082620003ca565b67ffffffffffffffff8111156200063c576200063b620001a3565b5b62000648825462000404565b620006558282856200057a565b600060209050601f8311600181146200068d576000841562000678578287015190505b620006848582620005f7565b865550620006f4565b601f1984166200069d8662000439565b60005b82811015620006c757848901518255600182019150602085019450602081019050620006a0565b86831015620006e75784890151620006e3601f891682620005d7565b8355505b6001600288020188555050505b505050505050565b614423806200070c6000396000f3fe6080604052600436106101d85760003560e01c80636352211e11610102578063a22cb46511610095578063d9f33c1411610064578063d9f33c14146106c8578063e985e9c514610705578063f2fde38b14610742578063f479f2de1461076b576101d8565b8063a22cb4651461060e578063b88d4fde14610637578063c87b56dd14610660578063d0bbb0d71461069d576101d8565b806376aed2e1116100d157806376aed2e11461055057806378a895671461058d5780638da5cb5b146105b857806395d89b41146105e3576101d8565b80636352211e1461049657806370a08231146104d3578063715018a614610510578063750521f514610527576101d8565b80632004ffd91161017a57806342842e0e1161014957806342842e0e146103da5780634f6ccce714610403578063609c92b81461044057806360e49e321461046b576101d8565b80632004ffd91461033f57806323b872dd146103495780632f745c591461037257806335db70b5146103af576101d8565b8063081812fc116101b6578063081812fc14610270578063095ea7b3146102ad57806318160ddd146102d65780631b8151ae14610301576101d8565b806301ffc9a7146101dd57806303ee438c1461021a57806306fdde0314610245575b600080fd5b3480156101e957600080fd5b5061020460048036038101906101ff91906129ff565b6107a8565b6040516102119190612a47565b60405180910390f35b34801561022657600080fd5b5061022f610822565b60405161023c9190612afb565b60405180910390f35b34801561025157600080fd5b5061025a6108b0565b6040516102679190612afb565b60405180910390f35b34801561027c57600080fd5b5061029760048036038101906102929190612b53565b610942565b6040516102a49190612bc1565b60405180910390f35b3480156102b957600080fd5b506102d460048036038101906102cf9190612c08565b6109c7565b005b3480156102e257600080fd5b506102eb610ade565b6040516102f89190612c57565b60405180910390f35b34801561030d57600080fd5b5061032860048036038101906103239190612b53565b610aeb565b604051610336929190612c72565b60405180910390f35b610347610b0f565b005b34801561035557600080fd5b50610370600480360381019061036b9190612c9b565b610cf4565b005b34801561037e57600080fd5b5061039960048036038101906103949190612c08565b610d54565b6040516103a69190612c57565b60405180910390f35b3480156103bb57600080fd5b506103c4610df9565b6040516103d19190612c57565b60405180910390f35b3480156103e657600080fd5b5061040160048036038101906103fc9190612c9b565b610dff565b005b34801561040f57600080fd5b5061042a60048036038101906104259190612b53565b610e1f565b6040516104379190612c57565b60405180910390f35b34801561044c57600080fd5b50610455610e90565b6040516104629190612c57565b60405180910390f35b34801561047757600080fd5b50610480610e95565b60405161048d9190612c57565b60405180910390f35b3480156104a257600080fd5b506104bd60048036038101906104b89190612b53565b610e9a565b6040516104ca9190612bc1565b60405180910390f35b3480156104df57600080fd5b506104fa60048036038101906104f59190612cee565b610f4b565b6040516105079190612c57565b60405180910390f35b34801561051c57600080fd5b50610525611002565b005b34801561053357600080fd5b5061054e60048036038101906105499190612e50565b61108a565b005b34801561055c57600080fd5b5061057760048036038101906105729190612b53565b611119565b6040516105849190612c57565b60405180910390f35b34801561059957600080fd5b506105a2611139565b6040516105af9190612fe0565b60405180910390f35b3480156105c457600080fd5b506105cd6111bc565b6040516105da9190612bc1565b60405180910390f35b3480156105ef57600080fd5b506105f86111e6565b6040516106059190612afb565b60405180910390f35b34801561061a57600080fd5b5061063560048036038101906106309190613028565b611278565b005b34801561064357600080fd5b5061065e60048036038101906106599190613109565b61128e565b005b34801561066c57600080fd5b5061068760048036038101906106829190612b53565b6112f0565b6040516106949190612afb565b60405180910390f35b3480156106a957600080fd5b506106b2611366565b6040516106bf9190612c57565b60405180910390f35b3480156106d457600080fd5b506106ef60048036038101906106ea9190612b53565b61136c565b6040516106fc9190612c57565b60405180910390f35b34801561071157600080fd5b5061072c6004803603810190610727919061318c565b61138c565b6040516107399190612a47565b60405180910390f35b34801561074e57600080fd5b5061076960048036038101906107649190612cee565b611420565b005b34801561077757600080fd5b50610792600480360381019061078d91906131cc565b611517565b60405161079f9190612c57565b60405180910390f35b60007f780e9d63000000000000000000000000000000000000000000000000000000007bffffffffffffffffffffffffffffffffffffffffffffffffffffffff1916827bffffffffffffffffffffffffffffffffffffffffffffffffffffffff1916148061081b575061081a82611545565b5b9050919050565b600b805461082f9061323b565b80601f016020809104026020016040519081016040528092919081815260200182805461085b9061323b565b80156108a85780601f1061087d576101008083540402835291602001916108a8565b820191906000526020600020905b81548152906001019060200180831161088b57829003601f168201915b505050505081565b6060600080546108bf9061323b565b80601f01602080910402602001604051908101604052809291908181526020018280546108eb9061323b565b80156109385780601f1061090d57610100808354040283529160200191610938565b820191906000526020600020905b81548152906001019060200180831161091b57829003601f168201915b5050505050905090565b600061094d82611627565b61098c576040517f08c379a0000000000000000000000000000000000000000000000000000000008152600401610983906132de565b60405180910390fd5b6004600083815260200190815260200160002060009054906101000a900473ffffffffffffffffffffffffffffffffffffffff169050919050565b60006109d282610e9a565b90508073ffffffffffffffffffffffffffffffffffffffff168373ffffffffffffffffffffffffffffffffffffffff1603610a42576040517f08c379a0000000000000000000000000000000000000000000000000000000008152600401610a3990613370565b60405180910390fd5b8073ffffffffffffffffffffffffffffffffffffffff16610a61611693565b73ffffffffffffffffffffffffffffffffffffffff161480610a905750610a8f81610a8a611693565b61138c565b5b610acf576040517f08c379a0000000000000000000000000000000000000000000000000000000008152600401610ac690613402565b60405180910390fd5b610ad9838361169b565b505050565b6000600880549050905090565b600d6020528060005260406000206000915090508060000154908060010154905082565b600c543414610b53576040517f08c379a0000000000000000000000000000000000000000000000000000000008152600401610b4a9061346e565b60405180910390fd5b610b5b610ade565b6103e811610b9e576040517f08c379a0000000000000000000000000000000000000000000000000000000008152600401610b95906134da565b60405180910390fd5b60006001610baa610ade565b610bb49190613529565b90506000610bc23383611754565b90506040518060400160405280826000015181526020018260200151815250600d60008481526020019081526020016000206000820151816000015560208201518160010155905050600e60018260000151610c1e919061357f565b60048110610c2f57610c2e6135b3565b5b6004020160018260200151610c44919061357f565b60048110610c5557610c546135b3565b5b50506040518060400160405280600181526020016001815250600d60008481526020019081526020016000206000820151816000015560208201518160010155905050610ca06111bc565b73ffffffffffffffffffffffffffffffffffffffff166108fc349081150290604051600060405180830381858888f19350505050158015610ce5573d6000803e3d6000fd5b50610cf033836119e9565b5050565b610d05610cff611693565b82611bc2565b610d44576040517f08c379a0000000000000000000000000000000000000000000000000000000008152600401610d3b90613654565b60405180910390fd5b610d4f838383611ca0565b505050565b6000610d5f83610f4b565b8210610da0576040517f08c379a0000000000000000000000000000000000000000000000000000000008152600401610d97906136e6565b60405180910390fd5b600660008473ffffffffffffffffffffffffffffffffffffffff1673ffffffffffffffffffffffffffffffffffffffff168152602001908152602001600020600083815260200190815260200160002054905092915050565b600c5481565b610e1a8383836040518060200160405280600081525061128e565b505050565b6000610e29610ade565b8210610e6a576040517f08c379a0000000000000000000000000000000000000000000000000000000008152600401610e6190613778565b60405180910390fd5b60088281548110610e7e57610e7d6135b3565b5b90600052602060002001549050919050565b600481565b600481565b6000806002600084815260200190815260200160002060009054906101000a900473ffffffffffffffffffffffffffffffffffffffff169050600073ffffffffffffffffffffffffffffffffffffffff168173ffffffffffffffffffffffffffffffffffffffff1603610f42576040517f08c379a0000000000000000000000000000000000000000000000000000000008152600401610f399061380a565b60405180910390fd5b80915050919050565b60008073ffffffffffffffffffffffffffffffffffffffff168273ffffffffffffffffffffffffffffffffffffffff1603610fbb576040517f08c379a0000000000000000000000000000000000000000000000000000000008152600401610fb29061389c565b60405180910390fd5b600360008373ffffffffffffffffffffffffffffffffffffffff1673ffffffffffffffffffffffffffffffffffffffff168152602001908152602001600020549050919050565b61100a611693565b73ffffffffffffffffffffffffffffffffffffffff166110286111bc565b73ffffffffffffffffffffffffffffffffffffffff161461107e576040517f08c379a000000000000000000000000000000000000000000000000000000000815260040161107590613908565b60405180910390fd5b6110886000611f06565b565b611092611693565b73ffffffffffffffffffffffffffffffffffffffff166110b06111bc565b73ffffffffffffffffffffffffffffffffffffffff1614611106576040517f08c379a00000000000000000000000000000000000000000000000000000000081526004016110fd90613908565b60405180910390fd5b80600b90816111159190613ad4565b5050565b6000600d6000838152602001908152602001600020600101549050919050565b61114161292a565b600e600480602002604051908101604052809291906000905b828210156111b35783826004020160048060200260405190810160405280929190826004801561119f576020028201915b81548152602001906001019080831161118b575b50505050508152602001906001019061115a565b50505050905090565b6000600a60009054906101000a900473ffffffffffffffffffffffffffffffffffffffff16905090565b6060600180546111f59061323b565b80601f01602080910402602001604051908101604052809291908181526020018280546112219061323b565b801561126e5780601f106112435761010080835404028352916020019161126e565b820191906000526020600020905b81548152906001019060200180831161125157829003601f168201915b5050505050905090565b61128a611283611693565b8383611fcc565b5050565b61129f611299611693565b83611bc2565b6112de576040517f08c379a00000000000000000000000000000000000000000000000000000000081526004016112d590613654565b60405180910390fd5b6112ea84848484612138565b50505050565b60606000611313600d600085815260200190815260200160002060000154612194565b90506000611336600d600086815260200190815260200160002060010154612194565b9050600b828260405160200161134e93929190613cfd565b60405160208183030381529060405292505050919050565b6103e881565b6000600d6000838152602001908152602001600020600001549050919050565b6000600560008473ffffffffffffffffffffffffffffffffffffffff1673ffffffffffffffffffffffffffffffffffffffff16815260200190815260200160002060008373ffffffffffffffffffffffffffffffffffffffff1673ffffffffffffffffffffffffffffffffffffffff16815260200190815260200160002060009054906101000a900460ff16905092915050565b611428611693565b73ffffffffffffffffffffffffffffffffffffffff166114466111bc565b73ffffffffffffffffffffffffffffffffffffffff161461149c576040517f08c379a000000000000000000000000000000000000000000000000000000000815260040161149390613908565b60405180910390fd5b600073ffffffffffffffffffffffffffffffffffffffff168173ffffffffffffffffffffffffffffffffffffffff160361150b576040517f08c379a000000000000000000000000000000000000000000000000000000000815260040161150290613dc1565b60405180910390fd5b61151481611f06565b50565b600e826004811061152757600080fd5b60040201816004811061153957600080fd5b01600091509150505481565b60007f80ac58cd000000000000000000000000000000000000000000000000000000007bffffffffffffffffffffffffffffffffffffffffffffffffffffffff1916827bffffffffffffffffffffffffffffffffffffffffffffffffffffffff1916148061161057507f5b5e139f000000000000000000000000000000000000000000000000000000007bffffffffffffffffffffffffffffffffffffffffffffffffffffffff1916827bffffffffffffffffffffffffffffffffffffffffffffffffffffffff1916145b80611620575061161f826122f4565b5b9050919050565b60008073ffffffffffffffffffffffffffffffffffffffff166002600084815260200190815260200160002060009054906101000a900473ffffffffffffffffffffffffffffffffffffffff1673ffffffffffffffffffffffffffffffffffffffff1614159050919050565b600033905090565b816004600083815260200190815260200160002060006101000a81548173ffffffffffffffffffffffffffffffffffffffff021916908373ffffffffffffffffffffffffffffffffffffffff160217905550808273ffffffffffffffffffffffffffffffffffffffff1661170e83610e9a565b73ffffffffffffffffffffffffffffffffffffffff167f8c5be1e5ebec7d5bd14f71427d1e84f3dd0314c0f7b2291e5b200ac8c7c3b92560405160405180910390a45050565b61175c612957565b600060648484604051602001611773929190613e4a565b6040516020818303038152906040528051906020012060001c6117969190613ea5565b90506117a0612957565b600582101561183057600182036117cc576004816000018181525050600181602001818152505061182b565b600282036117ef576004816000018181525050600281602001818152505061182a565b600382036118125760048160000181815250506003816020018181525050611829565b600481600001818152505060048160200181815250505b5b5b6119de565b600d8210156118c357600782101561185d57600381600001818152505060018160200181815250506118be565b600982101561188157600381600001818152505060028160200181815250506118bd565b600b8210156118a557600381600001818152505060038160200181815250506118bc565b600381600001818152505060048160200181815250505b5b5b6119dd565b60258210156119565760138210156118f05760028160000181815250506001816020018181525050611951565b60198210156119145760028160000181815250506002816020018181525050611950565b601f821015611938576002816000018181525050600381602001818152505061194f565b600281600001818152505060048160200181815250505b5b5b6119dc565b603482101561197a57600181600001818152505060018160200181815250506119db565b604482101561199e57600181600001818152505060028160200181815250506119da565b60548210156119c257600181600001818152505060038160200181815250506119d9565b600181600001818152505060048160200181815250505b5b5b5b5b5b809250505092915050565b600073ffffffffffffffffffffffffffffffffffffffff168273ffffffffffffffffffffffffffffffffffffffff1603611a58576040517f08c379a0000000000000000000000000000000000000000000000000000000008152600401611a4f90613f22565b60405180910390fd5b611a6181611627565b15611aa1576040517f08c379a0000000000000000000000000000000000000000000000000000000008152600401611a9890613f8e565b60405180910390fd5b611aad6000838361235e565b6001600360008473ffffffffffffffffffffffffffffffffffffffff1673ffffffffffffffffffffffffffffffffffffffff1681526020019081526020016000206000828254611afd9190613529565b92505081905550816002600083815260200190815260200160002060006101000a81548173ffffffffffffffffffffffffffffffffffffffff021916908373ffffffffffffffffffffffffffffffffffffffff160217905550808273ffffffffffffffffffffffffffffffffffffffff16600073ffffffffffffffffffffffffffffffffffffffff167fddf252ad1be2c89b69c2b068fc378daa952ba7f163c4a11628f55a4df523b3ef60405160405180910390a4611bbe60008383612470565b5050565b6000611bcd82611627565b611c0c576040517f08c379a0000000000000000000000000000000000000000000000000000000008152600401611c0390614020565b60405180910390fd5b6000611c1783610e9a565b90508073ffffffffffffffffffffffffffffffffffffffff168473ffffffffffffffffffffffffffffffffffffffff161480611c595750611c58818561138c565b5b80611c9757508373ffffffffffffffffffffffffffffffffffffffff16611c7f84610942565b73ffffffffffffffffffffffffffffffffffffffff16145b91505092915050565b8273ffffffffffffffffffffffffffffffffffffffff16611cc082610e9a565b73ffffffffffffffffffffffffffffffffffffffff1614611d16576040517f08c379a0000000000000000000000000000000000000000000000000000000008152600401611d0d906140b2565b60405180910390fd5b600073ffffffffffffffffffffffffffffffffffffffff168273ffffffffffffffffffffffffffffffffffffffff1603611d85576040517f08c379a0000000000000000000000000000000000000000000000000000000008152600401611d7c90614144565b60405180910390fd5b611d9083838361235e565b611d9b60008261169b565b6001600360008573ffffffffffffffffffffffffffffffffffffffff1673ffffffffffffffffffffffffffffffffffffffff1681526020019081526020016000206000828254611deb919061357f565b925050819055506001600360008473ffffffffffffffffffffffffffffffffffffffff1673ffffffffffffffffffffffffffffffffffffffff1681526020019081526020016000206000828254611e429190613529565b92505081905550816002600083815260200190815260200160002060006101000a81548173ffffffffffffffffffffffffffffffffffffffff021916908373ffffffffffffffffffffffffffffffffffffffff160217905550808273ffffffffffffffffffffffffffffffffffffffff168473ffffffffffffffffffffffffffffffffffffffff167fddf252ad1be2c89b69c2b068fc378daa952ba7f163c4a11628f55a4df523b3ef60405160405180910390a4611f01838383612470565b505050565b6000600a60009054906101000a900473ffffffffffffffffffffffffffffffffffffffff16905081600a60006101000a81548173ffffffffffffffffffffffffffffffffffffffff021916908373ffffffffffffffffffffffffffffffffffffffff1602179055508173ffffffffffffffffffffffffffffffffffffffff168173ffffffffffffffffffffffffffffffffffffffff167f8be0079c531659141344cd1fd0a4f28419497f9722a3daafe3b4186f6b6457e060405160405180910390a35050565b8173ffffffffffffffffffffffffffffffffffffffff168373ffffffffffffffffffffffffffffffffffffffff160361203a576040517f08c379a0000000000000000000000000000000000000000000000000000000008152600401612031906141b0565b60405180910390fd5b80600560008573ffffffffffffffffffffffffffffffffffffffff1673ffffffffffffffffffffffffffffffffffffffff16815260200190815260200160002060008473ffffffffffffffffffffffffffffffffffffffff1673ffffffffffffffffffffffffffffffffffffffff16815260200190815260200160002060006101000a81548160ff0219169083151502179055508173ffffffffffffffffffffffffffffffffffffffff168373ffffffffffffffffffffffffffffffffffffffff167f17307eab39ab6107e8899845ad3d59bd9653f200f220920489ca2b5937696c318360405161212b9190612a47565b60405180910390a3505050565b612143848484611ca0565b61214f84848484612475565b61218e576040517f08c379a000000000000000000000000000000000000000000000000000000000815260040161218590614242565b60405180910390fd5b50505050565b6060600082036121db576040518060400160405280600181526020017f300000000000000000000000000000000000000000000000000000000000000081525090506122ef565b600082905060005b6000821461220d5780806121f690614262565b915050600a8261220691906142aa565b91506121e3565b60008167ffffffffffffffff81111561222957612228612d25565b5b6040519080825280601f01601f19166020018201604052801561225b5781602001600182028036833780820191505090505b5090505b600085146122e857600182612274919061357f565b9150600a856122839190613ea5565b603061228f9190613529565b60f81b8183815181106122a5576122a46135b3565b5b60200101907effffffffffffffffffffffffffffffffffffffffffffffffffffffffffffff1916908160001a905350600a856122e191906142aa565b945061225f565b8093505050505b919050565b60007f01ffc9a7000000000000000000000000000000000000000000000000000000007bffffffffffffffffffffffffffffffffffffffffffffffffffffffff1916827bffffffffffffffffffffffffffffffffffffffffffffffffffffffff1916149050919050565b6123698383836125fc565b600073ffffffffffffffffffffffffffffffffffffffff168373ffffffffffffffffffffffffffffffffffffffff16036123ab576123a681612601565b6123ea565b8173ffffffffffffffffffffffffffffffffffffffff168373ffffffffffffffffffffffffffffffffffffffff16146123e9576123e8838261264a565b5b5b600073ffffffffffffffffffffffffffffffffffffffff168273ffffffffffffffffffffffffffffffffffffffff160361242c57612427816127b7565b61246b565b8273ffffffffffffffffffffffffffffffffffffffff168273ffffffffffffffffffffffffffffffffffffffff161461246a576124698282612888565b5b5b505050565b505050565b60006124968473ffffffffffffffffffffffffffffffffffffffff16612907565b156125ef578373ffffffffffffffffffffffffffffffffffffffff1663150b7a026124bf611693565b8786866040518563ffffffff1660e01b81526004016124e19493929190614330565b6020604051808303816000875af192505050801561251d57506040513d601f19601f8201168201806040525081019061251a9190614391565b60015b61259f573d806000811461254d576040519150601f19603f3d011682016040523d82523d6000602084013e612552565b606091505b506000815103612597576040517f08c379a000000000000000000000000000000000000000000000000000000000815260040161258e90614242565b60405180910390fd5b805181602001fd5b63150b7a0260e01b7bffffffffffffffffffffffffffffffffffffffffffffffffffffffff1916817bffffffffffffffffffffffffffffffffffffffffffffffffffffffff1916149150506125f4565b600190505b949350505050565b505050565b6008805490506009600083815260200190815260200160002081905550600881908060018154018082558091505060019003906000526020600020016000909190919091505550565b6000600161265784610f4b565b612661919061357f565b9050600060076000848152602001908152602001600020549050818114612746576000600660008673ffffffffffffffffffffffffffffffffffffffff1673ffffffffffffffffffffffffffffffffffffffff168152602001908152602001600020600084815260200190815260200160002054905080600660008773ffffffffffffffffffffffffffffffffffffffff1673ffffffffffffffffffffffffffffffffffffffff168152602001908152602001600020600084815260200190815260200160002081905550816007600083815260200190815260200160002081905550505b6007600084815260200190815260200160002060009055600660008573ffffffffffffffffffffffffffffffffffffffff1673ffffffffffffffffffffffffffffffffffffffff16815260200190815260200160002060008381526020019081526020016000206000905550505050565b600060016008805490506127cb919061357f565b90506000600960008481526020019081526020016000205490506000600883815481106127fb576127fa6135b3565b5b90600052602060002001549050806008838154811061281d5761281c6135b3565b5b90600052602060002001819055508160096000838152602001908152602001600020819055506009600085815260200190815260200160002060009055600880548061286c5761286b6143be565b5b6001900381819060005260206000200160009055905550505050565b600061289383610f4b565b905081600660008573ffffffffffffffffffffffffffffffffffffffff1673ffffffffffffffffffffffffffffffffffffffff168152602001908152602001600020600083815260200190815260200160002081905550806007600084815260200190815260200160002081905550505050565b6000808273ffffffffffffffffffffffffffffffffffffffff163b119050919050565b60405180608001604052806004905b612941612971565b8152602001906001900390816129395790505090565b604051806040016040528060008152602001600081525090565b6040518060800160405280600490602082028036833780820191505090505090565b6000604051905090565b600080fd5b600080fd5b60007fffffffff0000000000000000000000000000000000000000000000000000000082169050919050565b6129dc816129a7565b81146129e757600080fd5b50565b6000813590506129f9816129d3565b92915050565b600060208284031215612a1557612a1461299d565b5b6000612a23848285016129ea565b91505092915050565b60008115159050919050565b612a4181612a2c565b82525050565b6000602082019050612a5c6000830184612a38565b92915050565b600081519050919050565b600082825260208201905092915050565b60005b83811015612a9c578082015181840152602081019050612a81565b83811115612aab576000848401525b50505050565b6000601f19601f8301169050919050565b6000612acd82612a62565b612ad78185612a6d565b9350612ae7818560208601612a7e565b612af081612ab1565b840191505092915050565b60006020820190508181036000830152612b158184612ac2565b905092915050565b6000819050919050565b612b3081612b1d565b8114612b3b57600080fd5b50565b600081359050612b4d81612b27565b92915050565b600060208284031215612b6957612b6861299d565b5b6000612b7784828501612b3e565b91505092915050565b600073ffffffffffffffffffffffffffffffffffffffff82169050919050565b6000612bab82612b80565b9050919050565b612bbb81612ba0565b82525050565b6000602082019050612bd66000830184612bb2565b92915050565b612be581612ba0565b8114612bf057600080fd5b50565b600081359050612c0281612bdc565b92915050565b60008060408385031215612c1f57612c1e61299d565b5b6000612c2d85828601612bf3565b9250506020612c3e85828601612b3e565b9150509250929050565b612c5181612b1d565b82525050565b6000602082019050612c6c6000830184612c48565b92915050565b6000604082019050612c876000830185612c48565b612c946020830184612c48565b9392505050565b600080600060608486031215612cb457612cb361299d565b5b6000612cc286828701612bf3565b9350506020612cd386828701612bf3565b9250506040612ce486828701612b3e565b9150509250925092565b600060208284031215612d0457612d0361299d565b5b6000612d1284828501612bf3565b91505092915050565b600080fd5b600080fd5b7f4e487b7100000000000000000000000000000000000000000000000000000000600052604160045260246000fd5b612d5d82612ab1565b810181811067ffffffffffffffff82111715612d7c57612d7b612d25565b5b80604052505050565b6000612d8f612993565b9050612d9b8282612d54565b919050565b600067ffffffffffffffff821115612dbb57612dba612d25565b5b612dc482612ab1565b9050602081019050919050565b82818337600083830152505050565b6000612df3612dee84612da0565b612d85565b905082815260208101848484011115612e0f57612e0e612d20565b5b612e1a848285612dd1565b509392505050565b600082601f830112612e3757612e36612d1b565b5b8135612e47848260208601612de0565b91505092915050565b600060208284031215612e6657612e6561299d565b5b600082013567ffffffffffffffff811115612e8457612e836129a2565b5b612e9084828501612e22565b91505092915050565b600060049050919050565b600081905092915050565b6000819050919050565b600060049050919050565b600081905092915050565b6000819050919050565b612ee281612b1d565b82525050565b6000612ef48383612ed9565b60208301905092915050565b6000602082019050919050565b612f1681612eb9565b612f208184612ec4565b9250612f2b82612ecf565b8060005b83811015612f5c578151612f438782612ee8565b9650612f4e83612f00565b925050600181019050612f2f565b505050505050565b6000612f708383612f0d565b60808301905092915050565b6000602082019050919050565b612f9281612e99565b612f9c8184612ea4565b9250612fa782612eaf565b8060005b83811015612fd8578151612fbf8782612f64565b9650612fca83612f7c565b925050600181019050612fab565b505050505050565b600061020082019050612ff66000830184612f89565b92915050565b61300581612a2c565b811461301057600080fd5b50565b60008135905061302281612ffc565b92915050565b6000806040838503121561303f5761303e61299d565b5b600061304d85828601612bf3565b925050602061305e85828601613013565b9150509250929050565b600067ffffffffffffffff82111561308357613082612d25565b5b61308c82612ab1565b9050602081019050919050565b60006130ac6130a784613068565b612d85565b9050828152602081018484840111156130c8576130c7612d20565b5b6130d3848285612dd1565b509392505050565b600082601f8301126130f0576130ef612d1b565b5b8135613100848260208601613099565b91505092915050565b600080600080608085870312156131235761312261299d565b5b600061313187828801612bf3565b945050602061314287828801612bf3565b935050604061315387828801612b3e565b925050606085013567ffffffffffffffff811115613174576131736129a2565b5b613180878288016130db565b91505092959194509250565b600080604083850312156131a3576131a261299d565b5b60006131b185828601612bf3565b92505060206131c285828601612bf3565b9150509250929050565b600080604083850312156131e3576131e261299d565b5b60006131f185828601612b3e565b925050602061320285828601612b3e565b9150509250929050565b7f4e487b7100000000000000000000000000000000000000000000000000000000600052602260045260246000fd5b6000600282049050600182168061325357607f821691505b6020821081036132665761326561320c565b5b50919050565b7f4552433732313a20617070726f76656420717565727920666f72206e6f6e657860008201527f697374656e7420746f6b656e0000000000000000000000000000000000000000602082015250565b60006132c8602c83612a6d565b91506132d38261326c565b604082019050919050565b600060208201905081810360008301526132f7816132bb565b9050919050565b7f4552433732313a20617070726f76616c20746f2063757272656e74206f776e6560008201527f7200000000000000000000000000000000000000000000000000000000000000602082015250565b600061335a602183612a6d565b9150613365826132fe565b604082019050919050565b600060208201905081810360008301526133898161334d565b9050919050565b7f4552433732313a20617070726f76652063616c6c6572206973206e6f74206f7760008201527f6e6572206e6f7220617070726f76656420666f7220616c6c0000000000000000602082015250565b60006133ec603883612a6d565b91506133f782613390565b604082019050919050565b6000602082019050818103600083015261341b816133df565b9050919050565b7f4e6f7420656e6f75676820457468657200000000000000000000000000000000600082015250565b6000613458601083612a6d565b915061346382613422565b602082019050919050565b600060208201905081810360008301526134878161344b565b9050919050565b7f4e6f206d6f7265206d696e74696e6720697320706f737369626c652e00000000600082015250565b60006134c4601c83612a6d565b91506134cf8261348e565b602082019050919050565b600060208201905081810360008301526134f3816134b7565b9050919050565b7f4e487b7100000000000000000000000000000000000000000000000000000000600052601160045260246000fd5b600061353482612b1d565b915061353f83612b1d565b9250827fffffffffffffffffffffffffffffffffffffffffffffffffffffffffffffffff03821115613574576135736134fa565b5b828201905092915050565b600061358a82612b1d565b915061359583612b1d565b9250828210156135a8576135a76134fa565b5b828203905092915050565b7f4e487b7100000000000000000000000000000000000000000000000000000000600052603260045260246000fd5b7f4552433732313a207472616e736665722063616c6c6572206973206e6f74206f60008201527f776e6572206e6f7220617070726f766564000000000000000000000000000000602082015250565b600061363e603183612a6d565b9150613649826135e2565b604082019050919050565b6000602082019050818103600083015261366d81613631565b9050919050565b7f455243373231456e756d657261626c653a206f776e657220696e646578206f7560008201527f74206f6620626f756e6473000000000000000000000000000000000000000000602082015250565b60006136d0602b83612a6d565b91506136db82613674565b604082019050919050565b600060208201905081810360008301526136ff816136c3565b9050919050565b7f455243373231456e756d657261626c653a20676c6f62616c20696e646578206f60008201527f7574206f6620626f756e64730000000000000000000000000000000000000000602082015250565b6000613762602c83612a6d565b915061376d82613706565b604082019050919050565b6000602082019050818103600083015261379181613755565b9050919050565b7f4552433732313a206f776e657220717565727920666f72206e6f6e657869737460008201527f656e7420746f6b656e0000000000000000000000000000000000000000000000602082015250565b60006137f4602983612a6d565b91506137ff82613798565b604082019050919050565b60006020820190508181036000830152613823816137e7565b9050919050565b7f4552433732313a2062616c616e636520717565727920666f7220746865207a6560008201527f726f206164647265737300000000000000000000000000000000000000000000602082015250565b6000613886602a83612a6d565b91506138918261382a565b604082019050919050565b600060208201905081810360008301526138b581613879565b9050919050565b7f4f776e61626c653a2063616c6c6572206973206e6f7420746865206f776e6572600082015250565b60006138f2602083612a6d565b91506138fd826138bc565b602082019050919050565b60006020820190508181036000830152613921816138e5565b9050919050565b60008190508160005260206000209050919050565b60006020601f8301049050919050565b600082821b905092915050565b60006008830261398a7fffffffffffffffffffffffffffffffffffffffffffffffffffffffffffffffff8261394d565b613994868361394d565b95508019841693508086168417925050509392505050565b6000819050919050565b60006139d16139cc6139c784612b1d565b6139ac565b612b1d565b9050919050565b6000819050919050565b6139eb836139b6565b6139ff6139f7826139d8565b84845461395a565b825550505050565b600090565b613a14613a07565b613a1f8184846139e2565b505050565b5b81811015613a4357613a38600082613a0c565b600181019050613a25565b5050565b601f821115613a8857613a5981613928565b613a628461393d565b81016020851015613a71578190505b613a85613a7d8561393d565b830182613a24565b50505b505050565b600082821c905092915050565b6000613aab60001984600802613a8d565b1980831691505092915050565b6000613ac48383613a9a565b9150826002028217905092915050565b613add82612a62565b67ffffffffffffffff811115613af657613af5612d25565b5b613b00825461323b565b613b0b828285613a47565b600060209050601f831160018114613b3e5760008415613b2c578287015190505b613b368582613ab8565b865550613b9e565b601f198416613b4c86613928565b60005b82811015613b7457848901518255600182019150602085019450602081019050613b4f565b86831015613b915784890151613b8d601f891682613a9a565b8355505b6001600288020188555050505b505050505050565b600081905092915050565b60008154613bbe8161323b565b613bc88186613ba6565b94506001821660008114613be35760018114613bf857613c2b565b60ff1983168652811515820286019350613c2b565b613c0185613928565b60005b83811015613c2357815481890152600182019150602081019050613c04565b838801955050505b50505092915050565b7f2f00000000000000000000000000000000000000000000000000000000000000600082015250565b6000613c6a600183613ba6565b9150613c7582613c34565b600182019050919050565b6000613c8b82612a62565b613c958185613ba6565b9350613ca5818560208601612a7e565b80840191505092915050565b7f2e6a736f6e000000000000000000000000000000000000000000000000000000600082015250565b6000613ce7600583613ba6565b9150613cf282613cb1565b600582019050919050565b6000613d098286613bb1565b9150613d1482613c5d565b9150613d208285613c80565b9150613d2b82613c5d565b9150613d378284613c80565b9150613d4282613cda565b9150819050949350505050565b7f4f776e61626c653a206e6577206f776e657220697320746865207a65726f206160008201527f6464726573730000000000000000000000000000000000000000000000000000602082015250565b6000613dab602683612a6d565b9150613db682613d4f565b604082019050919050565b60006020820190508181036000830152613dda81613d9e565b9050919050565b60008160601b9050919050565b6000613df982613de1565b9050919050565b6000613e0b82613dee565b9050919050565b613e23613e1e82612ba0565b613e00565b82525050565b6000819050919050565b613e44613e3f82612b1d565b613e29565b82525050565b6000613e568285613e12565b601482019150613e668284613e33565b6020820191508190509392505050565b7f4e487b7100000000000000000000000000000000000000000000000000000000600052601260045260246000fd5b6000613eb082612b1d565b9150613ebb83612b1d565b925082613ecb57613eca613e76565b5b828206905092915050565b7f4552433732313a206d696e7420746f20746865207a65726f2061646472657373600082015250565b6000613f0c602083612a6d565b9150613f1782613ed6565b602082019050919050565b60006020820190508181036000830152613f3b81613eff565b9050919050565b7f4552433732313a20746f6b656e20616c7265616479206d696e74656400000000600082015250565b6000613f78601c83612a6d565b9150613f8382613f42565b602082019050919050565b60006020820190508181036000830152613fa781613f6b565b9050919050565b7f4552433732313a206f70657261746f7220717565727920666f72206e6f6e657860008201527f697374656e7420746f6b656e0000000000000000000000000000000000000000602082015250565b600061400a602c83612a6d565b915061401582613fae565b604082019050919050565b6000602082019050818103600083015261403981613ffd565b9050919050565b7f4552433732313a207472616e736665722066726f6d20696e636f72726563742060008201527f6f776e6572000000000000000000000000000000000000000000000000000000602082015250565b600061409c602583612a6d565b91506140a782614040565b604082019050919050565b600060208201905081810360008301526140cb8161408f565b9050919050565b7f4552433732313a207472616e7366657220746f20746865207a65726f2061646460008201527f7265737300000000000000000000000000000000000000000000000000000000602082015250565b600061412e602483612a6d565b9150614139826140d2565b604082019050919050565b6000602082019050818103600083015261415d81614121565b9050919050565b7f4552433732313a20617070726f766520746f2063616c6c657200000000000000600082015250565b600061419a601983612a6d565b91506141a582614164565b602082019050919050565b600060208201905081810360008301526141c98161418d565b9050919050565b7f4552433732313a207472616e7366657220746f206e6f6e20455243373231526560008201527f63656976657220696d706c656d656e7465720000000000000000000000000000602082015250565b600061422c603283612a6d565b9150614237826141d0565b604082019050919050565b6000602082019050818103600083015261425b8161421f565b9050919050565b600061426d82612b1d565b91507fffffffffffffffffffffffffffffffffffffffffffffffffffffffffffffffff820361429f5761429e6134fa565b5b600182019050919050565b60006142b582612b1d565b91506142c083612b1d565b9250826142d0576142cf613e76565b5b828204905092915050565b600081519050919050565b600082825260208201905092915050565b6000614302826142db565b61430c81856142e6565b935061431c818560208601612a7e565b61432581612ab1565b840191505092915050565b60006080820190506143456000830187612bb2565b6143526020830186612bb2565b61435f6040830185612c48565b818103606083015261437181846142f7565b905095945050505050565b60008151905061438b816129d3565b92915050565b6000602082840312156143a7576143a661299d565b5b60006143b58482850161437c565b91505092915050565b7f4e487b7100000000000000000000000000000000000000000000000000000000600052603160045260246000fdfea26469706673582212200db205caa7a3bdc0b787b8f63e57a41bd26726022777c63e48009c85a014b06464736f6c634300080f0033",
  "immutableReferences": {},
  "source": "// SPDX-License-Identifier: MIT\npragma solidity ^0.8.15;\n\nimport \"./node_modules/openzeppelin-solidity/contracts/token/ERC721/extensions/ERC721Enumerable.sol\";\nimport \"./node_modules/openzeppelin-solidity/contracts/utils/Strings.sol\";\nimport \"./node_modules/openzeppelin-solidity/contracts/access/Ownable.sol\";\n\ncontract IngToken is ERC721Enumerable, Ownable{\n\n    uint constant public MAX_TOKEN_COUNT = 1000;\n    uint constant public TOKEN_RANK = 4;\n    uint constant public TOKEN_TYPE = 4;\n\n    string public metadataURI;\n    uint public mintingPrice = 1 ether;\n    constructor(string memory _name, string memory _symbol, string memory _metadataURI) ERC721(_name, _symbol){\n        metadataURI = _metadataURI;\n    }\n\n    struct TokenData {\n        uint Rank;\n        uint Type;\n    }\n\n    mapping(uint => TokenData) public TokenDatas;\n\n    // uint[4][4] public tokenCount;\n\n\n\n    uint[TOKEN_RANK][TOKEN_TYPE] public TokenCount;\n\n    function mintToken() public payable {\n\n        require(msg.value == mintingPrice,\"Not enough Ether\");\n        require(MAX_TOKEN_COUNT > totalSupply(), \"No more minting is possible.\");\n\n        uint tokenId = totalSupply() + 1;\n\n        // rank, type\n        \n        TokenData memory random = getRandomNum(msg.sender, tokenId);\n        TokenDatas[tokenId] = TokenData(random.Rank, random.Type);\n        TokenCount[random.Rank-1][random.Type-1];\n\n        TokenDatas[tokenId] = TokenData(1,1);\n        payable(owner()).transfer(msg.value);\n        _mint(msg.sender, tokenId);\n    }\n\n    function getTokenRank(uint _tokenId) public view returns(uint){\n        return TokenDatas[_tokenId].Rank;\n    }\n\n    function getTokenType(uint _tokenId) public view returns(uint){\n        return TokenDatas[_tokenId].Type;\n    }\n\n    function getTokenCount() public view returns(uint[TOKEN_RANK][TOKEN_TYPE] memory) {\n        return TokenCount;\n    }\n   \n\n    function tokenURI(uint _tokenId) public view override returns (string memory) {\n        string memory Rank = Strings.toString(TokenDatas[_tokenId].Rank);\n        string memory Type = Strings.toString(TokenDatas[_tokenId].Type);\n        return string(abi.encodePacked(metadataURI,'/',Rank,'/',Type,'.json'));\n    }\n\n\n    function getRandomNum(address _msgSender, uint _tokenId) private pure returns(TokenData memory) {\n        uint randomNum = uint(keccak256(abi.encodePacked(_msgSender, _tokenId))) % 100;\n        TokenData memory data;\n\n       if (randomNum < 5) {\n            if (randomNum == 1) {\n                data.Rank = 4;\n                data.Type = 1;\n            } else if (randomNum == 2) {\n                data.Rank = 4;\n                data.Type = 2;\n            } else if (randomNum == 3) {\n                data.Rank = 4;\n                data.Type = 3;\n            } else {\n                data.Rank = 4;\n                data.Type = 4;\n            }\n        } else if (randomNum < 13) {\n            if (randomNum < 7) {\n                data.Rank = 3;\n                data.Type = 1;\n            } else if (randomNum < 9) {\n                data.Rank = 3;\n                data.Type = 2;\n            } else if (randomNum < 11) {\n                data.Rank = 3;\n                data.Type = 3;\n            } else {\n                data.Rank = 3;\n                data.Type = 4;\n            }\n        } else if (randomNum < 37) {\n            if (randomNum < 19) {\n                data.Rank = 2;\n                data.Type = 1;\n            } else if (randomNum < 25) {\n                data.Rank = 2;\n                data.Type = 2;\n            } else if (randomNum < 31) {\n                data.Rank = 2;\n                data.Type = 3;\n            } else {\n                data.Rank = 2;\n                data.Type = 4;\n            }\n        } else {\n            if (randomNum < 52) {\n                data.Rank = 1;\n                data.Type = 1;\n            } else if (randomNum < 68) {\n                data.Rank = 1;\n                data.Type = 2;\n            } else if (randomNum < 84) {\n                data.Rank = 1;\n                data.Type = 3;\n            } else {\n                data.Rank = 1;\n                data.Type = 4;\n            }\n        }\n\n        return data;\n    }\n\n    function setMetadataURI(string memory _uri) public onlyOwner {\n        metadataURI = _uri;\n    }  \n\n}",
  "sourcePath": "/home/jongs/workspace/0728/truffle/contracts/IngToken.sol",
  "compiler": {
    "name": "solc",
    "version": "0.8.15+commit.e14f2714.Emscripten.clang"
  },
  "schemaVersion": "3.4.8",
  "updatedAt": "2022-08-10T07:51:39.953Z",
  "networkType": "ethereum",
  "devdoc": {
    "kind": "dev",
    "methods": {
      "approve(address,uint256)": {
        "details": "See {IERC721-approve}."
      },
      "balanceOf(address)": {
        "details": "See {IERC721-balanceOf}."
      },
      "getApproved(uint256)": {
        "details": "See {IERC721-getApproved}."
      },
      "isApprovedForAll(address,address)": {
        "details": "See {IERC721-isApprovedForAll}."
      },
      "name()": {
        "details": "See {IERC721Metadata-name}."
      },
      "owner()": {
        "details": "Returns the address of the current owner."
      },
      "ownerOf(uint256)": {
        "details": "See {IERC721-ownerOf}."
      },
      "renounceOwnership()": {
        "details": "Leaves the contract without owner. It will not be possible to call `onlyOwner` functions anymore. Can only be called by the current owner. NOTE: Renouncing ownership will leave the contract without an owner, thereby removing any functionality that is only available to the owner."
      },
      "safeTransferFrom(address,address,uint256)": {
        "details": "See {IERC721-safeTransferFrom}."
      },
      "safeTransferFrom(address,address,uint256,bytes)": {
        "details": "See {IERC721-safeTransferFrom}."
      },
      "setApprovalForAll(address,bool)": {
        "details": "See {IERC721-setApprovalForAll}."
      },
      "supportsInterface(bytes4)": {
        "details": "See {IERC165-supportsInterface}."
      },
      "symbol()": {
        "details": "See {IERC721Metadata-symbol}."
      },
      "tokenByIndex(uint256)": {
        "details": "See {IERC721Enumerable-tokenByIndex}."
      },
      "tokenOfOwnerByIndex(address,uint256)": {
        "details": "See {IERC721Enumerable-tokenOfOwnerByIndex}."
      },
      "totalSupply()": {
        "details": "See {IERC721Enumerable-totalSupply}."
      },
      "transferFrom(address,address,uint256)": {
        "details": "See {IERC721-transferFrom}."
      },
      "transferOwnership(address)": {
        "details": "Transfers ownership of the contract to a new account (`newOwner`). Can only be called by the current owner."
      }
    },
    "version": 1
  },
  "userdoc": {
    "kind": "user",
    "methods": {},
    "version": 1
  }
}