{
  "contractName": "SaleToken",
  "abi": [
    {
      "inputs": [
        {
          "internalType": "address",
          "name": "_tokenAddress",
          "type": "address"
        }
      ],
      "stateMutability": "nonpayable",
      "type": "constructor"
    },
    {
      "inputs": [
        {
          "internalType": "uint256",
          "name": "",
          "type": "uint256"
        }
      ],
      "name": "SaleTokenList",
      "outputs": [
        {
          "internalType": "uint256",
          "name": "",
          "type": "uint256"
        }
      ],
      "stateMutability": "view",
      "type": "function",
      "constant": true
    },
    {
      "inputs": [],
      "name": "Token",
      "outputs": [
        {
          "internalType": "contract IngToken",
          "name": "",
          "type": "address"
        }
      ],
      "stateMutability": "view",
      "type": "function",
      "constant": true
    },
    {
      "inputs": [
        {
          "internalType": "uint256",
          "name": "",
          "type": "uint256"
        }
      ],
      "name": "tokenPrices",
      "outputs": [
        {
          "internalType": "uint256",
          "name": "",
          "type": "uint256"
        }
      ],
      "stateMutability": "view",
      "type": "function",
      "constant": true
    },
    {
      "inputs": [
        {
          "internalType": "uint256",
          "name": "_tokenId",
          "type": "uint256"
        },
        {
          "internalType": "uint256",
          "name": "_price",
          "type": "uint256"
        }
      ],
      "name": "SalesToken",
      "outputs": [],
      "stateMutability": "nonpayable",
      "type": "function"
    },
    {
      "inputs": [
        {
          "internalType": "uint256",
          "name": "_tokenId",
          "type": "uint256"
        }
      ],
      "name": "PurchaseToken",
      "outputs": [],
      "stateMutability": "payable",
      "type": "function",
      "payable": true
    },
    {
      "inputs": [],
      "name": "getSaleTokenList",
      "outputs": [
        {
          "components": [
            {
              "internalType": "uint256",
              "name": "tokenId",
              "type": "uint256"
            },
            {
              "internalType": "uint256",
              "name": "Rank",
              "type": "uint256"
            },
            {
              "internalType": "uint256",
              "name": "Type",
              "type": "uint256"
            },
            {
              "internalType": "uint256",
              "name": "price",
              "type": "uint256"
            }
          ],
          "internalType": "struct SaleToken.TokenInfo[]",
          "name": "",
          "type": "tuple[]"
        }
      ],
      "stateMutability": "view",
      "type": "function",
      "constant": true
    },
    {
      "inputs": [
        {
          "internalType": "uint256",
          "name": "_tokenId",
          "type": "uint256"
        }
      ],
      "name": "getTokenInfo",
      "outputs": [
        {
          "internalType": "uint256",
          "name": "",
          "type": "uint256"
        },
        {
          "internalType": "uint256",
          "name": "",
          "type": "uint256"
        },
        {
          "internalType": "uint256",
          "name": "",
          "type": "uint256"
        }
      ],
      "stateMutability": "view",
      "type": "function",
      "constant": true
    },
    {
      "inputs": [
        {
          "internalType": "address",
          "name": "_tokenOwner",
          "type": "address"
        }
      ],
      "name": "getOwnerTokens",
      "outputs": [
        {
          "components": [
            {
              "internalType": "uint256",
              "name": "tokenId",
              "type": "uint256"
            },
            {
              "internalType": "uint256",
              "name": "Rank",
              "type": "uint256"
            },
            {
              "internalType": "uint256",
              "name": "Type",
              "type": "uint256"
            },
            {
              "internalType": "uint256",
              "name": "price",
              "type": "uint256"
            }
          ],
          "internalType": "struct SaleToken.TokenInfo[]",
          "name": "",
          "type": "tuple[]"
        }
      ],
      "stateMutability": "view",
      "type": "function",
      "constant": true
    },
    {
      "inputs": [
        {
          "internalType": "address",
          "name": "_tokenOwner",
          "type": "address"
        }
      ],
      "name": "getLatestToken",
      "outputs": [
        {
          "components": [
            {
              "internalType": "uint256",
              "name": "tokenId",
              "type": "uint256"
            },
            {
              "internalType": "uint256",
              "name": "Rank",
              "type": "uint256"
            },
            {
              "internalType": "uint256",
              "name": "Type",
              "type": "uint256"
            },
            {
              "internalType": "uint256",
              "name": "price",
              "type": "uint256"
            }
          ],
          "internalType": "struct SaleToken.TokenInfo",
          "name": "",
          "type": "tuple"
        }
      ],
      "stateMutability": "view",
      "type": "function",
      "constant": true
    }
  ],
  "bytecode": "0x60806040523480156200001157600080fd5b5060405162001c4838038062001c488339818101604052810190620000379190620000e8565b806000806101000a81548173ffffffffffffffffffffffffffffffffffffffff021916908373ffffffffffffffffffffffffffffffffffffffff160217905550506200011a565b600080fd5b600073ffffffffffffffffffffffffffffffffffffffff82169050919050565b6000620000b08262000083565b9050919050565b620000c281620000a3565b8114620000ce57600080fd5b50565b600081519050620000e281620000b7565b92915050565b6000602082840312156200010157620001006200007e565b5b60006200011184828501620000d1565b91505092915050565b611b1e806200012a6000396000f3fe6080604052600436106100865760003560e01c8063921e033b11610059578063921e033b1461014e578063a4ad760b14610177578063c2412676146101b4578063d63d4af0146101df578063e5afe3e61461021c57610086565b80630c8cc5691461008b5780633048f512146100c85780634e4dc988146100e45780638c7a63ae1461010f575b600080fd5b34801561009757600080fd5b506100b260048036038101906100ad919061112b565b610259565b6040516100bf9190611167565b60405180910390f35b6100e260048036038101906100dd919061112b565b61027d565b005b3480156100f057600080fd5b506100f9610533565b6040516101069190611295565b60405180910390f35b34801561011b57600080fd5b506101366004803603810190610131919061112b565b61067f565b604051610145939291906112b7565b60405180910390f35b34801561015a57600080fd5b50610175600480360381019061017091906112ee565b6107eb565b005b34801561018357600080fd5b5061019e6004803603810190610199919061138c565b610a7c565b6040516101ab919061140e565b60405180910390f35b3480156101c057600080fd5b506101c9610d53565b6040516101d69190611488565b60405180910390f35b3480156101eb57600080fd5b506102066004803603810190610201919061138c565b610d77565b6040516102139190611295565b60405180910390f35b34801561022857600080fd5b50610243600480360381019061023e919061112b565b610fd4565b6040516102509190611167565b60405180910390f35b6002818154811061026957600080fd5b906000526020600020016000915090505481565b60008060009054906101000a900473ffffffffffffffffffffffffffffffffffffffff1673ffffffffffffffffffffffffffffffffffffffff16636352211e836040518263ffffffff1660e01b81526004016102d99190611167565b602060405180830381865afa1580156102f6573d6000803e3d6000fd5b505050506040513d601f19601f8201168201806040525081019061031a91906114b8565b90503373ffffffffffffffffffffffffffffffffffffffff168173ffffffffffffffffffffffffffffffffffffffff160361038a576040517f08c379a000000000000000000000000000000000000000000000000000000000815260040161038190611542565b60405180910390fd5b60006001600084815260200190815260200160002054116103e0576040517f08c379a00000000000000000000000000000000000000000000000000000000081526004016103d7906115ae565b60405180910390fd5b3460016000848152602001908152602001600020541115610436576040517f08c379a000000000000000000000000000000000000000000000000000000000815260040161042d9061161a565b60405180910390fd5b8073ffffffffffffffffffffffffffffffffffffffff166108fc349081150290604051600060405180830381858888f1935050505015801561047c573d6000803e3d6000fd5b5060008054906101000a900473ffffffffffffffffffffffffffffffffffffffff1673ffffffffffffffffffffffffffffffffffffffff166342842e0e8233856040518463ffffffff1660e01b81526004016104da93929190611649565b600060405180830381600087803b1580156104f457600080fd5b505af1158015610508573d6000803e3d6000fd5b505050506000600160008481526020019081526020016000208190555061052e82610fec565b505050565b606060006002805490501161057d576040517f08c379a0000000000000000000000000000000000000000000000000000000008152600401610574906116cc565b60405180910390fd5b600060028054905067ffffffffffffffff81111561059e5761059d6116ec565b5b6040519080825280602002602001820160405280156105d757816020015b6105c46110c8565b8152602001906001900390816105bc5790505b50905060005b60028054905081101561067757600060028281548110610600576105ff61171b565b5b90600052602060002001549050600080600061061b8461067f565b9250925092506040518060800160405280858152602001848152602001838152602001828152508686815181106106555761065461171b565b5b602002602001018190525050505050808061066f90611779565b9150506105dd565b508091505090565b60008060008060008054906101000a900473ffffffffffffffffffffffffffffffffffffffff1673ffffffffffffffffffffffffffffffffffffffff1663d9f33c14866040518263ffffffff1660e01b81526004016106de9190611167565b602060405180830381865afa1580156106fb573d6000803e3d6000fd5b505050506040513d601f19601f8201168201806040525081019061071f91906117d6565b905060008060009054906101000a900473ffffffffffffffffffffffffffffffffffffffff1673ffffffffffffffffffffffffffffffffffffffff166376aed2e1876040518263ffffffff1660e01b815260040161077d9190611167565b602060405180830381865afa15801561079a573d6000803e3d6000fd5b505050506040513d601f19601f820116820180604052508101906107be91906117d6565b90506000600160008881526020019081526020016000205490508282829550955095505050509193909250565b60008060009054906101000a900473ffffffffffffffffffffffffffffffffffffffff1673ffffffffffffffffffffffffffffffffffffffff16636352211e846040518263ffffffff1660e01b81526004016108479190611167565b602060405180830381865afa158015610864573d6000803e3d6000fd5b505050506040513d601f19601f8201168201806040525081019061088891906114b8565b90503373ffffffffffffffffffffffffffffffffffffffff168173ffffffffffffffffffffffffffffffffffffffff16146108f8576040517f08c379a00000000000000000000000000000000000000000000000000000000081526004016108ef9061184f565b60405180910390fd5b6000821161093b576040517f08c379a0000000000000000000000000000000000000000000000000000000008152600401610932906118bb565b60405180910390fd5b6000600160008581526020019081526020016000205414610991576040517f08c379a000000000000000000000000000000000000000000000000000000000815260040161098890611927565b60405180910390fd5b60008054906101000a900473ffffffffffffffffffffffffffffffffffffffff1673ffffffffffffffffffffffffffffffffffffffff1663e985e9c533306040518363ffffffff1660e01b81526004016109ec929190611947565b602060405180830381865afa158015610a09573d6000803e3d6000fd5b505050506040513d601f19601f82011682018060405250810190610a2d91906119a8565b610a3657600080fd5b8160016000858152602001908152602001600020819055506002839080600181540180825580915050600190039060005260206000200160009091909190915055505050565b610a846110c8565b60008060009054906101000a900473ffffffffffffffffffffffffffffffffffffffff1673ffffffffffffffffffffffffffffffffffffffff166370a08231846040518263ffffffff1660e01b8152600401610ae091906119d5565b602060405180830381865afa158015610afd573d6000803e3d6000fd5b505050506040513d601f19601f82011682018060405250810190610b2191906117d6565b905060008060009054906101000a900473ffffffffffffffffffffffffffffffffffffffff1673ffffffffffffffffffffffffffffffffffffffff16632f745c5985600185610b7091906119f0565b6040518363ffffffff1660e01b8152600401610b8d929190611a24565b602060405180830381865afa158015610baa573d6000803e3d6000fd5b505050506040513d601f19601f82011682018060405250810190610bce91906117d6565b905060008060009054906101000a900473ffffffffffffffffffffffffffffffffffffffff1673ffffffffffffffffffffffffffffffffffffffff1663d9f33c14836040518263ffffffff1660e01b8152600401610c2c9190611167565b602060405180830381865afa158015610c49573d6000803e3d6000fd5b505050506040513d601f19601f82011682018060405250810190610c6d91906117d6565b905060008060009054906101000a900473ffffffffffffffffffffffffffffffffffffffff1673ffffffffffffffffffffffffffffffffffffffff166376aed2e1846040518263ffffffff1660e01b8152600401610ccb9190611167565b602060405180830381865afa158015610ce8573d6000803e3d6000fd5b505050506040513d601f19601f82011682018060405250810190610d0c91906117d6565b905060006001600085815260200190815260200160002054905060405180608001604052808581526020018481526020018381526020018281525095505050505050919050565b60008054906101000a900473ffffffffffffffffffffffffffffffffffffffff1681565b606060008060009054906101000a900473ffffffffffffffffffffffffffffffffffffffff1673ffffffffffffffffffffffffffffffffffffffff166370a08231846040518263ffffffff1660e01b8152600401610dd591906119d5565b602060405180830381865afa158015610df2573d6000803e3d6000fd5b505050506040513d601f19601f82011682018060405250810190610e1691906117d6565b905060008103610e5b576040517f08c379a0000000000000000000000000000000000000000000000000000000008152600401610e5290611a99565b60405180910390fd5b60008167ffffffffffffffff811115610e7757610e766116ec565b5b604051908082528060200260200182016040528015610eb057816020015b610e9d6110c8565b815260200190600190039081610e955790505b50905060005b82811015610fc95760008060009054906101000a900473ffffffffffffffffffffffffffffffffffffffff1673ffffffffffffffffffffffffffffffffffffffff16632f745c5987846040518363ffffffff1660e01b8152600401610f1c929190611a24565b602060405180830381865afa158015610f39573d6000803e3d6000fd5b505050506040513d601f19601f82011682018060405250810190610f5d91906117d6565b90506000806000610f6d8461067f565b925092509250604051806080016040528085815260200184815260200183815260200182815250868681518110610fa757610fa661171b565b5b6020026020010181905250505050508080610fc190611779565b915050610eb6565b508092505050919050565b60016020528060005260406000206000915090505481565b600080600090505b6002805490508110156110bd5782600282815481106110165761101561171b565b5b9060005260206000200154036110aa576002600160028054905061103a91906119f0565b8154811061104b5761104a61171b565b5b90600052602060002001546002828154811061106a5761106961171b565b5b9060005260206000200181905550600280548061108a57611089611ab9565b5b6001900381819060005260206000200160009055905560019150506110c3565b80806110b590611779565b915050610ff4565b50600090505b919050565b6040518060800160405280600081526020016000815260200160008152602001600081525090565b600080fd5b6000819050919050565b611108816110f5565b811461111357600080fd5b50565b600081359050611125816110ff565b92915050565b600060208284031215611141576111406110f0565b5b600061114f84828501611116565b91505092915050565b611161816110f5565b82525050565b600060208201905061117c6000830184611158565b92915050565b600081519050919050565b600082825260208201905092915050565b6000819050602082019050919050565b6111b7816110f5565b82525050565b6080820160008201516111d360008501826111ae565b5060208201516111e660208501826111ae565b5060408201516111f960408501826111ae565b50606082015161120c60608501826111ae565b50505050565b600061121e83836111bd565b60808301905092915050565b6000602082019050919050565b600061124282611182565b61124c818561118d565b93506112578361119e565b8060005b8381101561128857815161126f8882611212565b975061127a8361122a565b92505060018101905061125b565b5085935050505092915050565b600060208201905081810360008301526112af8184611237565b905092915050565b60006060820190506112cc6000830186611158565b6112d96020830185611158565b6112e66040830184611158565b949350505050565b60008060408385031215611305576113046110f0565b5b600061131385828601611116565b925050602061132485828601611116565b9150509250929050565b600073ffffffffffffffffffffffffffffffffffffffff82169050919050565b60006113598261132e565b9050919050565b6113698161134e565b811461137457600080fd5b50565b60008135905061138681611360565b92915050565b6000602082840312156113a2576113a16110f0565b5b60006113b084828501611377565b91505092915050565b6080820160008201516113cf60008501826111ae565b5060208201516113e260208501826111ae565b5060408201516113f560408501826111ae565b50606082015161140860608501826111ae565b50505050565b600060808201905061142360008301846113b9565b92915050565b6000819050919050565b600061144e6114496114448461132e565b611429565b61132e565b9050919050565b600061146082611433565b9050919050565b600061147282611455565b9050919050565b61148281611467565b82525050565b600060208201905061149d6000830184611479565b92915050565b6000815190506114b281611360565b92915050565b6000602082840312156114ce576114cd6110f0565b5b60006114dc848285016114a3565b91505092915050565b600082825260208201905092915050565b7f43616c6c657220697320546f6b656e204f776e65722e00000000000000000000600082015250565b600061152c6016836114e5565b9150611537826114f6565b602082019050919050565b6000602082019050818103600083015261155b8161151f565b9050919050565b7f7468697320746f6b656e206e6f742073616c652e000000000000000000000000600082015250565b60006115986014836114e5565b91506115a382611562565b602082019050919050565b600060208201905081810360008301526115c78161158b565b9050919050565b7f43616c6c65722073656e74206c6f776572207468616e20707269636500000000600082015250565b6000611604601c836114e5565b915061160f826115ce565b602082019050919050565b60006020820190508181036000830152611633816115f7565b9050919050565b6116438161134e565b82525050565b600060608201905061165e600083018661163a565b61166b602083018561163a565b6116786040830184611158565b949350505050565b7f4e6f74206578697374206f6e2073616c6520546f6b656e000000000000000000600082015250565b60006116b66017836114e5565b91506116c182611680565b602082019050919050565b600060208201905081810360008301526116e5816116a9565b9050919050565b7f4e487b7100000000000000000000000000000000000000000000000000000000600052604160045260246000fd5b7f4e487b7100000000000000000000000000000000000000000000000000000000600052603260045260246000fd5b7f4e487b7100000000000000000000000000000000000000000000000000000000600052601160045260246000fd5b6000611784826110f5565b91507fffffffffffffffffffffffffffffffffffffffffffffffffffffffffffffffff82036117b6576117b561174a565b5b600182019050919050565b6000815190506117d0816110ff565b92915050565b6000602082840312156117ec576117eb6110f0565b5b60006117fa848285016117c1565b91505092915050565b7f43616c6c6572206973206e6f7420546f6b656e204f776e65722e000000000000600082015250565b6000611839601a836114e5565b915061184482611803565b602082019050919050565b600060208201905081810360008301526118688161182c565b9050919050565b7f5072696365206973207a65726f206f72206c6f7765722e000000000000000000600082015250565b60006118a56017836114e5565b91506118b08261186f565b602082019050919050565b600060208201905081810360008301526118d481611898565b9050919050565b7f5468697320546f6b656e20697320616c7265616479206f6e2073616c652e0000600082015250565b6000611911601e836114e5565b915061191c826118db565b602082019050919050565b6000602082019050818103600083015261194081611904565b9050919050565b600060408201905061195c600083018561163a565b611969602083018461163a565b9392505050565b60008115159050919050565b61198581611970565b811461199057600080fd5b50565b6000815190506119a28161197c565b92915050565b6000602082840312156119be576119bd6110f0565b5b60006119cc84828501611993565b91505092915050565b60006020820190506119ea600083018461163a565b92915050565b60006119fb826110f5565b9150611a06836110f5565b925082821015611a1957611a1861174a565b5b828203905092915050565b6000604082019050611a39600083018561163a565b611a466020830184611158565b9392505050565b7f546f6b656e206f776e657220646964206e6f74206861766520746f6b656e2e00600082015250565b6000611a83601f836114e5565b9150611a8e82611a4d565b602082019050919050565b60006020820190508181036000830152611ab281611a76565b9050919050565b7f4e487b7100000000000000000000000000000000000000000000000000000000600052603160045260246000fdfea2646970667358221220a80e8a928f3147d14eae7ba6c8a0655102d4c1610ba28e7e903af0e92f7280a464736f6c634300080f0033",
  "immutableReferences": {},
  "source": "// SPDX-License-Identifier: MIT\npragma solidity ^0.8.15;\n\nimport \"./IngToken.sol\";\n\ncontract SaleToken {\n    IngToken public Token;\n\n    constructor(address _tokenAddress) {\n        Token = IngToken(_tokenAddress);\n    }\n\n    struct TokenInfo {\n        uint tokenId;\n        uint Rank;\n        uint Type;\n        uint price;\n    }\n\n\n\n    mapping(uint => uint) public tokenPrices; //   \n    uint[] public SaleTokenList; //   \n\n    // \n    function SalesToken(uint _tokenId, uint _price) public {\n        address tokenOwner = Token.ownerOf(_tokenId);\n\n        require(tokenOwner == msg.sender, \"Caller is not Token Owner.\");\n        require(_price > 0, \"Price is zero or lower.\");\n        require(tokenPrices[_tokenId] == 0, \"This Token is already on sale.\");\n        require(Token.isApprovedForAll(msg.sender, address(this)));\n\n        tokenPrices[_tokenId] = _price;\n        SaleTokenList.push(_tokenId);\n    }\n\n    //\n    function PurchaseToken(uint _tokenId) public payable {\n        address tokenOwner = Token.ownerOf(_tokenId);\n\n        require(tokenOwner != msg.sender, \"Caller is Token Owner.\");\n        require(tokenPrices[_tokenId] > 0, \"this token not sale.\");\n        require(tokenPrices[_tokenId] <= msg.value, \"Caller sent lower than price\");\n\n        payable(tokenOwner).transfer(msg.value);\n        Token.safeTransferFrom(tokenOwner, msg.sender, _tokenId);\n        tokenPrices[_tokenId] = 0;\n\n        popSaleToken(_tokenId);\n    }\n\n    function popSaleToken(uint _tokenId) private returns(bool){\n        for(uint i=0; i < SaleTokenList.length; i++) {\n            if (SaleTokenList[i] == _tokenId) {\n                SaleTokenList[i] = SaleTokenList[SaleTokenList.length - 1];\n                SaleTokenList.pop();\n                return true;\n            }\n        }\n        return false;\n    }\n\n\n    function getSaleTokenList() public view returns (TokenInfo[] memory){\n        require(SaleTokenList.length > 0 , \"Not exist on sale Token\");\n\n        TokenInfo[] memory list = new TokenInfo[](SaleTokenList.length);\n\n        for(uint i = 0; i < SaleTokenList.length; i++) {\n            uint tokenId = SaleTokenList[i];\n            (uint Rank, uint Type, uint Price) = getTokenInfo(tokenId);\n            list[i] = TokenInfo(tokenId, Rank, Type, Price);\n        }\n\n        return list;\n    }\n\n\n      function getTokenInfo(uint _tokenId) public view returns (uint, uint, uint){\n        uint Rank = Token.getTokenRank(_tokenId);\n        uint Type = Token.getTokenType(_tokenId);\n        uint Price = tokenPrices[_tokenId];\n\n        return (Rank, Type, Price);\n    }\n\n    function getOwnerTokens(address _tokenOwner) public view returns(TokenInfo[] memory) {\n        uint balance = Token.balanceOf(_tokenOwner);\n\n        require(balance != 0, \"Token owner did not have token.\");\n        TokenInfo[] memory list = new TokenInfo[](balance);\n\n        for(uint i =0; i< balance; i++) {\n            uint tokenId = Token.tokenOfOwnerByIndex(_tokenOwner, i);\n            (uint Rank, uint Type, uint Price) = getTokenInfo(tokenId);\n            list[i] = TokenInfo(tokenId, Rank, Type, Price);\n        }\n\n        return list;\n    }\n\n    function getLatestToken(address _tokenOwner) public view returns(TokenInfo memory) {\n        uint balance = Token.balanceOf(_tokenOwner);\n        uint tokenId = Token.tokenOfOwnerByIndex(_tokenOwner, balance -1);\n        uint Rank = Token.getTokenRank(tokenId);\n        uint Type = Token.getTokenType(tokenId);\n        uint price = tokenPrices[tokenId];\n        // (uint Rank, uint Type, uint Price) = getTokenInfo(tokenId);\n\n        return TokenInfo(tokenId, Rank, Type, price);\n    }\n\n  \n\n    //   view \n    //     view\n}",
  "sourcePath": "/home/jongs/workspace/0728/truffle/contracts/SaleToken.sol",
  "compiler": {
    "name": "solc",
    "version": "0.8.15+commit.e14f2714.Emscripten.clang"
  },
  "schemaVersion": "3.4.8",
  "updatedAt": "2022-08-10T07:51:39.987Z",
  "networkType": "ethereum",
  "devdoc": {
    "kind": "dev",
    "methods": {},
    "version": 1
  },
  "userdoc": {
    "kind": "user",
    "methods": {},
    "version": 1
  }
}